:020000040000FA
:100000000805002065010000730100007501000073
:1000100000000000000000000000000000000000E0
:100020000000000000000000000000007701000058
:100030000000000000000000790100004B230000D8
:10004000552300009523000081160000C116000012
:100050004D130000B5220000391000008D12000081
:1000600069250000690800009D050000790F000067
:1000700015280000B722000000000000000000006A
:100080000000000000000000000000000000000070
:100090000000000000000000000000000000000060
:1000A0000000000000000000000000000000000050
:1000B0000000000000000000000000000000000040
:1000C00000F002F800F03EF80CA030C80838241800
:1000D0002D18A246671EAB4654465D46AC4201D180
:1000E00000F030F87E460F3E0FCCB6460126334274
:1000F00000D0FB1AA246AB4633431847B82A00008B
:10010000D82A0000103A02D378C878C1FAD852072A
:1001100001D330C830C101D504680C6070470000BD
:100120000023002400250026103A01D378C1FBD813
:10013000520700D330C100D50B6070471FB51FBDFB
:1001400010B510BD00F0F7F91146FFF7F7FF02F008
:10015000C3FB00F00FFA03B4FFF7F2FF03BC00F09B
:1001600015FA0000094880F30888094880470948C3
:100170000047FEE7FEE7FEE7FEE7FEE7FEE70000DA
:1001800005480649064A074B70470000080500204D
:100190004D230000C1000000B80200200805002027
:1001A000B8040020B804002001E004C0091F04299D
:1001B000FBD28B0701D50280801CC90700D00270DA
:1001C000704700290BD0C30702D00270401C491EA3
:1001D000022904D3830702D50280801C891EE3E72D
:1001E0000022EEE70022DFE7002203098B422CD336
:1001F000030A8B4211D300239C464EE003460B4377
:100200003CD4002243088B4231D303098B421CD3D8
:10021000030A8B4201D394463FE0C3098B4201D3CA
:10022000CB01C01A524183098B4201D38B01C01A02
:10023000524143098B4201D34B01C01A5241030979
:100240008B4201D30B01C01A5241C3088B4201D328
:10025000CB00C01A524183088B4201D38B00C01AD5
:10026000524143088B4201D34B00C01A5241411AFC
:1002700000D201465241104670475DE0CA0F00D0DF
:100280004942031000D34042534000229C460309D8
:100290008B422DD3030A8B4212D3FC22890112BA5E
:1002A000030A8B420CD3890192118B4208D3890136
:1002B00092118B4204D389013AD0921100E089094E
:1002C000C3098B4201D3CB01C01A524183098B422F
:1002D00001D38B01C01A524143098B4201D34B0118
:1002E000C01A524103098B4201D30B01C01A52417B
:1002F000C3088B4201D3CB00C01A524183088B4202
:1003000001D38B00C01A5241D9D243088B4201D38A
:100310004B00C01A5241411A00D201466346524175
:100320005B10104601D34042002B00D54942704774
:1003300063465B1000D3404201B50020C046C04672
:1003400002BD704770477047F0B5FF252D04C60900
:10035000C209FF2704462E400137CB093E434840DF
:100360002A402B400746002A6BD0002B69D0AA42B6
:1003700067D0AB4265D0002800DA32460125ED0592
:1003800029432C4309022002090AD21A4B0C7F246C
:10039000E31A434C000A7C44E35C7D2424041219D4
:1003A00014145B00A218884201D3521C00E04000E4
:1003B00049420C465C4324115C43DB016415E3189D
:1003C000040A5C43C502200D0C4644436419250A07
:1003D0005D432303EC0C0D46654300030019EB1845
:1003E0004C42A34201D35B18401CD4052018002BBB
:1003F00007D05B00C91804D3401C002901D1400874
:1004000040003F2189048A4209D3002A08DC1106F2
:10041000090F04D0032149074018C00FC007F0BDE1
:1004200001224100120689187F2252069142F6D21B
:1004300005214907C84201D59010F0BDFF20C00535
:10044000F0BD002F00DA32461648AA4207D2AB426E
:1004500005D21902090E17D0F80FC007F0BDFF250D
:1004600063002D06AB42F9D84900A942F6D8AB4249
:1004700001D1A942F2D0A94201D1002101E06100DD
:100480004908D0050843F0BD1102090EFBD0FF203A
:100490000243D005F0BD0A460146104654E700006D
:1004A000DA2700000000C07F0102C21504D001233A
:1004B000DB071943002A0ADB9E239A1A02D4084656
:1004C000D0407047FF2241001206914201D900201E
:1004D0007047C017C04370471F22030C02D10F2280
:1004E00000041CD0030E01D10002083A030F01D111
:1004F0000001121F830F01D18000921E002801DB32
:100500004000521ED2055118021251181922904073
:1005100004D3491C002801D1490849000846704706
:10052000C10FC90700D04042012292071143D3E70F
:1005300001218907D0E7754600F024F8AE46050092
:1005400069465346C008C000854618B020B5FFF77D
:1005500017FE60BC00274908B6460026C0C5C0C5C6
:10056000C0C5C0C5C0C5C0C5C0C5C0C5403D4900A7
:100570008D46704710B50446C046C0462046FFF77A
:10058000EAFD10BD004870475402002001491820C0
:10059000ABBEFEE7260002007047000000B50B4826
:1005A000C16A03221143C1620949088A401C0882BA
:1005B00000F0E8FC0748817F012905D1017F491C33
:1005C0000177417F491C417700BD00004004014094
:1005D000380100207C010020F8B50C4605460121B9
:1005E000080201F069FE2088042802D9001F80B2A9
:1005F00000E000201A49194B8B620202C805826193
:1006000000228A626288AA662679A28AB6023243EA
:10061000A67D278936033F013E433243A67C36023E
:10062000324392B26A65A689628936013243E6890D
:10063000278A36023F033E4332432A65094A258C06
:100640001563E58B5563A58B95638B624269638C5B
:100650009B011A43426100208862F8BD837A000042
:100660008000004000040140002141808180C18061
:10067000018141818181C181018241828182C18266
:100680008183C183018441847047000000B589B033
:100690006846FFF7E9FF00206B46988058820821E2
:1006A00059819881D8811882188101229A82D88232
:1006B00019805A8069460848FFF78EFF06480749A7
:1006C0004030016006494160FF21C1624169C214A6
:1006D0001143416109B000BD000401401042000017
:1006E0005309000010B50B48002101808180018171
:1006F0008181018281820749074A80310A63074A62
:100700000A621C224A62064A0A63012101F040FD86
:1007100010BD000000070140ADDE00001C1C000001
:10072000FECA000070B5114A0F499162D1054B69AC
:100730000F4C23404B61C3260E4D0F4CB6000300F7
:1007400002F069F80706090C0F0F0C090600486152
:100750000020906270BD48692843F8E7486920434B
:10076000F5E748693043F2E7837A000080000040F3
:10077000F3F800000C0400000C050000F0B520495F
:100780001E4A0A63204A1F4B9362D20553691F4CCD
:100790002340536104251E4C1C260C27030002F045
:1007A0003AF8070C160812231C050C000C624E6266
:1007B00010E01748103012E05061164808631248E4
:1007C00000218162F0BD144808624D6210E01348B8
:1007D00008624D6250692043EEE71048083808620D
:1007E0004F6250690E4B06E00B48183808624E62A3
:1007F0005069C3239B001843DEE70000ADDE000014
:1008000080070140837A000080000040F3F8000078
:100810000C040000FECA00001C0C00000C1C0000B0
:100820000C05000010B50548002101808180018180
:1008300081810182818201F0ABFC10BD0007014083
:1008400010B59320800001F0F7FC064C2060FF20DB
:10085000F13001F0F1FC606020686168884200D0EE
:10086000FEE710BD6000002038B5144900204A683A
:10087000920721D502224A6000236A46137008E0DD
:100880004A69920701D5401CC0B26C462278521CBE
:1008900022706A461278042AF2D302280CD908483A
:1008A0008371084809490370074801220370888F43
:1008B00010438887FFF7B6FF38BD000000020140F3
:1008C00088000020160000201700002038010020BA
:1008D00070B504460121082001F010FD6069616CCB
:1008E00040020143A06CA269000252001043014380
:1008F0002B480160216862680901D2001143A26897
:1009000011438160E169226AC90192011143626A5F
:1009100052011143A26A12011143E26CD200114349
:10092000226D92001143626D52001143A26D11437A
:10093000C160616BA26BC90192011143E26B52016C
:100940001143226C12011143626ED2001143A26E58
:1009500092001143E26E52001143226F1143016174
:10096000114A1049916243055969104D2940E56AC1
:100970002D032943E568ED022943E56D2D02294346
:100980002569ED012943256B246E2D012943A4001F
:1009900021435961002191620321416070BD000033
:1009A00000020140837A0000800000404380000084
:1009B00070B5254CA069401CA061607D00283BD12A
:1009C000607D401C60750120A071204D00262048EC
:1009D000AE760078E876FFF7D1FE1E4B1E601D480C
:1009E0001D49403801804A42828001818281018212
:1009F0008282FF211960012101F0CAFB2079174989
:100A00000128A87E19D0124A1832125C4A70104A86
:100A10000C32105CA876032020751148486088606D
:100A20000A22CA60084920310E7326636663266273
:100A3000E0610C486062A66270BD054A1232125C29
:100A40004A70034A921DE4E7880000203801002024
:100A50003900002040070140D4FEFFFF680000205D
:100A6000DC05000028230000F8B5424E306A401C27
:100A70003062B06A401CB06234462034207B3E4F66
:100A8000012841D03069401C30613C484069FF2159
:100A900001310840F060F068000A3870384600F014
:100AA000B7F83069796888423ED3354D3549A87E1C
:100AB000085CE876FFF762FE30790128A87E34D022
:100AC00030491831095C79702E490C31085CA876E0
:100AD000306AF061002131622A4F7F1E3878052884
:100AE00000D93970F3693A78900080190364F3698A
:100AF0004366521C3A70E87E234B082501220128E8
:100B00001AD006282AD02CE0306B401C3063306BA2
:100B1000716B884208D3002030632073706B3061A2
:100B20007868716B40187860F8BD16491231095C1D
:100B300079701449891DC9E7D8686840D860B06ADF
:100B40007062B1620B4880300275B06B7D231B016F
:100B5000984206D2B06B401CB06302E0D86868408F
:100B6000D86030697063706B800870632273316382
:100B70003161F8BD880000206800002000020140BB
:100B800038010020390000204008014000210122E6
:100B900006C001608160C160016141618161C16124
:100BA000016241628162C162016341638163C16329
:100BB000016441648164C164016541658165C16509
:100BC0000166416642608166704700B59DB0684627
:100BD000FFF7DCFF0121480301F06EFB01218803D0
:100BE00001F06AFB032118910520009004210120E7
:100BF00017910021019015900B91022211910990FB
:100C000006900C926846FFF763FE1DB000BD000021
:100C10000E490A6849688A4216D10178002941784C
:100C200002D0002909D101E0002906D0416882687C
:100C3000914209D24168491C05E04168C26891426D
:100C400002D94168491E41607047000060000020E1
:100C500010B501214902034800F09CFA02490870CE
:100C600010BD0000000801401C00002010B501214B
:100C70004902114800F08EFA0022104900280ED0D7
:100C80000A720878002809D10A70487A401CC0B25C
:100C90004872052802D94A720120087010BD4A72B4
:100CA00008780128FAD1087A401CC0B208720528D9
:100CB000F4D90A720A7010BD000801401C0000201F
:100CC00030B5039D0E4C012D02D02180208830BD0F
:100CD000884200D808462188814202D9C5188D4231
:100CE0000BD8814202D2851A8D4206DB814201D99E
:100CF000C81A02E0814200D288182080E6E700008E
:100D000018000020F8B50C460860896801260A46DC
:100D10000F3A904209D2607E0021304360766161D3
:100D2000032801D166762176F8BD8842FCD9657E1C
:100D300002273D436576401AFFF7FAFBE16901F0AF
:100D4000A5FEFFF7B1FB60612169884201D8014629
:100D500000E06161E068814200D26061032DE3D16F
:100D600067762676F8BD10B5C269816904688A1A6B
:100D70004168036951436118C9138B4202DB43691F
:100D80008B4201DD036201E00B460162C91A8368F0
:100D90005343C2684A43991A0919016010BD000003
:100DA00010B5602001F044FD0A4A09489062D00560
:100DB0000169C31319430161642001F0BDFA106891
:100DC000054908431060054801F0AAFA10BD00006B
:100DD000837A000080000040FF010000FF0F000048
:100DE000F0B587B072B600242A494C614869CA142C
:100DF00010434861009401940294274803940860CA
:100E00001F20C862254D8D616846848221480326D3
:100E10004038471522E0224B0494049A521C049255
:100E20009A42FAD3CA6A3243CA620022825E009BA7
:100E3000D21800920422825E019BD21801920822ED
:100E4000825E029BD21802920C22825E039BD21811
:100E500003928D616B469A8A521C9A826A46928AE4
:100E6000BA42D8D300210F4801F092F900984112FC
:100E70000D48818301994912818602994912C186E0
:100E8000039949120187FFF701FC00F05FFD62B68C
:100E900007B0F0BD4004014010420000A55A000018
:100EA000FF01000000070140380100200A481E2110
:100EB000415E002901DA002100E0C18B0184028C2F
:100EC000416A8918826A891A416289088162C1620D
:100ED000024901647047000038010020842E0000A0
:100EE00070B50446FF20C53001F0A6F905B2FF2019
:100EF000C13001F0A1F900B2FF2C00D3FF2444431C
:100F00006012401900B2002801DA002002E0FF2838
:100F100000DDFF2001218907C86270BD10B50121E5
:100F2000C80201F0C9F91120FFF7DAFF10BD000077
:100F30000C491C20085E0C4A0C4B821808462030D5
:100F40009A4202D30122827602E0807E002808D0F5
:100F5000074A00201070074A1070888F1022104333
:100F60008887704738010020AC0D0000591B000035
:100F7000160000201700002001490F2088607047EC
:100F8000800A014010B5174A11881748838BC91A87
:100F9000C183918A00230904002901DA438203E016
:100FA0001421515E09114182118A090401D58382FD
:100FB00008E014211024415E145F0919CC0F611858
:100FC00049108182118B090401D5C38210BD1621FD
:100FD0001823415ED35EC918CA0F51184910C18247
:100FE00010BD0000000401403801002011490A68CA
:100FF00049688A4211D1017801290FD04169491C01
:1010000041618169002902D08169491E816141697C
:101010000269914201D30178017770478169491CC7
:1010200081614169002902D04169491E416181699C
:10103000EEE70000600000200348C168090701D501
:101040000821C160704700008008014070B500238E
:1010500001252A460C689A40144094422AD10C7902
:10106000002C04D0012C11D0022C04D006E004681E
:101070001646264306604468944344604C79012C2C
:101080000BD0022C10D0002C0BD00DE00468944340
:101090000460466814463443EFE706691446344357
:1010A00001E004699443046184698E68012E05D0CF
:1010B000944384615B1C102BCBD370BD1443F8E7C1
:1010C000F0B5324F1601150214030B0001F0A3FB1B
:1010D00010090D13181E22282D33373D42484C525B
:1010E000571D016A394089180EE0016A274AE13A22
:1010F0001140711808E0016A254A1140691803E09F
:10110000016A0905090D61180162F0BD416A3940A3
:1011100089180EE0416A1D4AE13A1140711808E051
:10112000416A1B4A1140691803E0416A0905090D2B
:1011300061184162F0BD816A394089180EE0816A08
:10114000124AE13A1140711808E0816A104A1140D0
:10115000691803E0816A0905090D61188162F0BD13
:10116000C16A394089180EE0C16A084AE13A114063
:10117000711808E0C16A064A1140691803E0C16AA3
:101180000905090D6118C162F0BD0000F0FF000003
:10119000FFF000000246926800200A4200D00120C1
:1011A0007047002101600171417181607047002A20
:1011B00001D001637047416370470000FEB5684687
:1011C000FFF7EFFF0124684604713F2080022E4F95
:1011D000009069463846FFF739FF03220A21384656
:1011E000FFF76EFF03220B213846FFF769FF03224A
:1011F0000C213846FFF764FF03220D213846FFF724
:101200005FFF03220E213846FFF75AFF03220F210A
:101210003846FFF755FF68460471082000901A48C9
:1012200069464030FFF712FF0025684605716602E7
:101230000096447169463846FFF708FF6846057115
:1012400010200090684644710F4869464030FFF70F
:10125000FDFE00F0D9FE68460471694638460094E8
:10126000FFF7F4FE012211463846FFF7A0FF00F019
:10127000BDFE6846057100964571034869464030D9
:10128000FFF7E4FEFEBD0000000801400121034815
:1012900009044160490041607047000000030140BB
:1012A00010B572B626482749886200F085F80120FB
:1012B00000040168C20011430160302001F0B8FA57
:1012C000642001F0C7FAFFF779FF00F077FF00F024
:1012D0002DFFFFF7DBF9FFF721FEFFF776FC01F0AA
:1012E00045F900F033FBFFF7ABFA174801F024F89B
:1012F00001210A2000F0A2FE0A2000F093FE002146
:10130000012000F09BFE012000F08CFE0221002055
:1013100000F094FE002000F085FE0221084600F057
:101320008DFE022000F07EFE0021092000F086FEE6
:10133000092000F077FE642001F0A2FA62B610BD29
:10134000837A00008000004020A107007047000061
:10135000F8B5154C0120A076144E0A203061144FC8
:1013600000251448BD760078F876FFF7DBF92046B3
:101370008038007901280FD03577307FE0770D492C
:10138000B87E0C31085CB8766577E57625772562FE
:10139000A577B5617561F8BD01203077307FE077C2
:1013A0000449B87E891DEDE708010020680000208F
:1013B00038010020390000200F20024980024860D7
:1013C00070470000000C014070B5049C1D4623616D
:1013D000E2606160A060081AFFF7AAF80646284696
:1013E000FFF7A6F83146FEF7AFFFE0610020607618
:1013F0002076606170BD000030B50E4896210E4A1F
:10140000012441610A4DA403083034C0084B002276
:101410008A3314380CC0426181611C3043604161E1
:101420000260FF23C26149330162083038C030BD19
:10143000DC0500000C0200208F02000070B53D4D5D
:1014400000246C71AC71EC712C812C80EC6029460D
:1014500020390C702C61384888600A22CA604C70B0
:1014600048602C756C75AC61E8612C62334E6E621D
:10147000AC620B4640331C732C636C63AC63EC634F
:101480002C6628646864A864E86428656865AE65AD
:10149000EC656866A866E86628676867A867E86715
:1014A0000846A030046044608460C4600461047530
:1014B000C48204838476C476047744778477C477BF
:1014C0000C7704628C614C610A6144628462C4627C
:1014D0003030047044808480C4800481048244825B
:1014E0008482C4820483164984760978C176848311
:1014F000C48304844462846201462031C4620C7453
:1015000044868486C48604878C768487C4870D4885
:101510000476447644610C48046044600B480476C9
:10152000447644610A4804604460FFF765FF6C80BC
:1015300070BD000088000020DC05000028230000AA
:10154000390000209C010020BC010020D4010020B3
:10155000F401002010B5FFF765F908484179084803
:10156000002903D1818F074A11408187808F00288D
:1015700002D105490220087010BD0000880000203B
:1015800038010020F6FDFFFF1600002010B501F025
:1015900005FA02490220087010BD00001600002064
:1015A0000248034940788000085800471600002090
:1015B000582B000001490420487070471600002095
:1015C00010B5FFF78FF80848017F012905D1816A1E
:1015D000642903D2816A491C816210BD00218162A5
:1015E00001770248417010BD08010020160000205C
:1015F00001490120487070471600002010B50348CB
:101600004079002801D100F02FF810BD880000209B
:1016100010B5FFF79DFE02490220487010BD000082
:101620001600002010B503484079002801D100F0D1
:101630001BF810BD88000020014905204870704744
:101640001600002010B501F0A9F9054840790128DD
:1016500004D10448002141700321017010BD000035
:10166000880000201600002010B5FFF7DBF80348C3
:10167000022101700021417010BD00001600002001
:1016800010B50A4C606980060FD5094900208871A1
:10169000084901220870084908700848818F1143E1
:1016A0008187FFF7BFF82020606110BD80070140EF
:1016B00088000020160000201700002038010020BC
:1016C00070470000F8B50D4606460121102000F0D5
:1016D00015FE30469749803001636A792979920076
:1016E0001143AA7AEB7A12015B011A431143AA79DA
:1016F00092011143EA79D20111432A7B120211436C
:101700006A7B52021143F1672988316369887163EA
:10171000E98B3162298C7162698CB162A98CF162AA
:101720002989316729462031CB7A8A7A5B001A43AE
:101730008B7CEC8A9B01E40123431A430B7B1B0245
:101740001A434B7B5B021A43CB7C9B031A432B8BC4
:10175000DB031A430262CB7B8A7B5B001A430B7D5F
:101760006C8B9B01E40123431A430B7C1B021A433D
:101770004B7C5B021A434B7D9B031A43AB8BDB0311
:101780001A4342622C464034A37822789B001A43C5
:101790008B7FCF7F1B017F013B431A4363785B0044
:1017A0001A43E378DB001A432379DB011A43237BD6
:1017B0001B021A43E37A5B021A43A37B9B021A4380
:1017C000637BDB021A43237C1B031A43E37B5B032B
:1017D0001A438262637AE2799B001A436379A7799C
:1017E0001B017F013B431A43237A5B001A43A37A10
:1017F000DB001A432379DB011A43637C1B021A4383
:10180000A37C5B021A43C2620B7E8A7D1B011A43D2
:101810004B7E0F7F5B01BF013B431A43CB7D1B0215
:101820001A438B7E1B031A43CB7E497F5B031A430B
:1018300089030A437267E98C3165298D7165E18EF0
:10184000B167E989B164298AF1641221695EB163E3
:101850001421695EF163227DE17C52001143627DB7
:10186000A37D9200DB001A431143E27D6035120133
:101870001143227E52011143627E92011143A27EE6
:10188000D2011143E27E12021143227F5202114320
:10189000627F92021143A27FD2021143E27F1203C0
:1018A00011432A78520311436A789203114301606D
:1018B000EA78A978520011432A796B7912025B0207
:1018C0001A431143AA7912031143EA7952031143CF
:1018D0002A7A920311438160697CAA7C0901520132
:1018E0001143EA7C920111432A7DD2011143016127
:1018F000AA7A697A52001143EA7A2B7B9200DB00C4
:101900001A4311436A7B12011143AA7B520111430E
:10191000EA7B920111432A7CD20111438161297E25
:10192000C161054931644160C1604161034901639E
:10193000F8BD0000ADDE0000FFFF0000FECA0000A1
:1019400010B57A21FEF74CFC10BD000000B59FB029
:101950006846FFF7F5FF00206B46187101215971A9
:101960009971D882188358831F4A10ABDA860C22EB
:101970006B461A725A721D4A1A806322D243DA8366
:10198000FF222D321A844822DA841A8508ABD872D5
:10199000987210AB0B90D8721390187408AB9874AF
:1019A000D874187510AB197108AB1976587610AB4E
:1019B000D87418AB587408AB987710AB197098703E
:1019C00018AB997408ABD97710AB5970D870094827
:1019D0000749016308490163064869468038FFF7F3
:1019E00071FE1FB000BD00003F130000DC050000C9
:1019F000ADDE000080070140FECA000010B522499C
:101A0000204A0A631C220024030000F004FF05049E
:101A1000080D121518001D480862082002E01C4835
:101A20000862042048620AE00320800208624A62D9
:101A300005E00A620C20F5E7164808624C62164879
:101A4000028B5342104A803A1380038B9380038B9E
:101A50005B421381038B9381038B5B421382038B65
:101A60009382408B084A603A1080074A0B48403AFC
:101A700010600B4808630B4804604169C2141143AD
:101A8000416110BDADDE0000800701400808000084
:101A9000040400000C1C00007C010020FFFF00007B
:101AA000FECA000040040140F8B51F4E1620305E0B
:101AB0001E49FF27F53700251D4C884214D2E581C9
:101AC000A089B84202D2A089401C12E0A581194821
:101AD000857119482021057018480570B08F08439A
:101AE000B087FEF79FFE05E0A089002802D0A089FC
:101AF000401EA0811620305E114988420CD9A58174
:101B0000E089B84202D2E089401C0AE0E581B08F4A
:101B100020218843B087F8BDE0890028FBD0E08908
:101B2000401EE081F8BD00003801002027100000B1
:101B3000020000208800002016000020170000206E
:101B400001290000F8B5374C0125A5770026E67776
:101B500096202083208B4008608368460670324FB1
:101B60004EE03249C8686840C86068460078207016
:101B70002078FFF743FF2677207F0028FCD0012143
:101B80002B4800F005FB207F0228FCD300212848C9
:101B900000F0FEFA27480088B98B401A6946097898
:101BA00000B2890009194860694608788000001968
:101BB00041682148814203DD69460978022906D33C
:101BC00069460978890009194968814200DDE5778D
:101BD0006677607F0528FCD3E07F002802D1B88FAC
:101BE000002809D01548012106701548C902067061
:101BF000B88F0843B88707E069460878401C08702A
:101C0000684600780528ACD372B6FEF73FFDFFF7B3
:101C10009DFE084940314869CA141043486162B6C4
:101C2000F8BD00007C0100203801002000080140C0
:101C30000007014000040140881300001600002046
:101C40001700002070B5264C207D012846D125467E
:101C5000803D686A0621FEF7C7FA206020684000D0
:101C6000606020684008A060A0684008E06060688C
:101C7000A168401A2061A86B002605282DD9E682AC
:101C8000686EE8670020B922D20081004919496EC8
:101C9000914202D9E18A491CE182E18A0029218B23
:101CA00001D0491C03E0002902D0218B491E218369
:101CB000401CC0B20628E8D3208B32280DD9094831
:101CC0000822818F11438187C687AE71064806704E
:101CD00006480670FEF7A6FD2683267570BD000037
:101CE0000801002038010020160000201700002005
:101CF000F8B5634C607F634D0027002842D1206A0D
:101D0000401C206260484069FF210131084026469E
:101D1000803EF060F068000A28702846FFF766F9F8
:101D2000287FE17F88422DD0206A6062606A686007
:101D300030460761287FE077A07F401CA077A07F16
:101D4000052804D301206077E0762777A7772762FC
:101D5000AF616F61607F002814D14C4E4C48B17E5A
:101D6000405CF076FEF7DEFC4548803800790128BB
:101D7000B07E0BD046491831095C697044490C317A
:101D8000085CB076607F012807D063E040491231DB
:101D9000095C69703E49891DF2E7E07E012859D14E
:101DA000606A401E6062364E803E3069401C306181
:101DB0003069616A88424DD3E7766777A776354800
:101DC00005210170032030750120B0716420306658
:101DD00031482E49077647764761304807604760AB
:101DE0002F480776477647612E48076047608A7E0E
:101DF0002748805CC876FEF7C1FC2B4B1F609521FD
:101E00002948C9434038018096228280018182811D
:101E100001828282FF211960012100F0B9F9307935
:101E20001A4A0128907E24D019491831095C69703A
:101E300017490C31085C9076E7762777B7613069EF
:101E40007063706B800870630D49012060390873FE
:101E500037633761206A7D214901884208D9677755
:101E6000A7762762A777AF616F610A4903200870E0
:101E7000F8BD07491231095C69700549891DD9E728
:101E80000801002068000020000201403801002005
:101E900039000020170000209C010020BC01002018
:101EA000D4010020F40100204007014000B5134890
:101EB000427914481249808F002A02D0002818D095
:101EC00001E0002802D000F021F800BD0E4AD079D0
:101ED000401CC0B2D071322805D30020D071C86830
:101EE00001225040C86006494031C868082290432A
:101EF00002E0C86840084000C86000BD88000020BB
:101F000000080140380100201C000020F0B53449D1
:101F1000C878401CC0B2C870142852D90022314879
:101F2000CA70808F082301281BD002281BD00428E8
:101F30001BD008281BD010281BD020281BD04028DD
:101F40001BD080281BD0C41FF93C08D0C41FFF3C05
:101F5000FA3C16D0DC01A04215D1162018E0122060
:101F600016E0022014E0042012E0062010E00B71BD
:101F70000FE00A200CE00C200AE00E2008E0102000
:101F800006E0142004E00124E402A04201D118205C
:101F900008711348144D80794C79401C124F40351C
:101FA0000126C0B2002C0DD0012C0AD1FC683443AC
:101FB000FC60EC681C43EC6088710A2801D38A71CC
:101FC0004A71F0BDFC687440FC60EC685C40EC60F9
:101FD00088710B799842F4D38A714E71F0BD00007C
:101FE0001C00002038010020000801400548044979
:101FF00081624168402291434160002181627047C3
:10200000837A0000800000400548044981624168ED
:10201000202211434160002181627047837A0000D1
:1020200080000040C206D20E012191404009024AC0
:10203000800080180160704700E100E08307FF2204
:10204000DB0E9A408907090E994000280BDA000739
:10205000000F0838830808489B001818C369934389
:102060000B43C3617047830804489B00181803683A
:1020700093430B430360704700ED00E000E400E091
:10208000F8B5234FB8790025224C012802D02582CB
:102090006582F8BD204E1E20305E20498842208A8D
:1020A00013DD7D21C900884202D2208A401C10E045
:1020B000BD711B4805701B480570B18F012040029F
:1020C0000143B187FEF7AEFB04E0002802D0208A6E
:1020D000401E20821E20305E13498842608A11DD36
:1020E000C82802D2608A401C10E0BD710C48012152
:1020F00005700C4849020570B08F0843B087FEF7A1
:1021000091FBF8BD0028FCD0608A401E6082F8BDBB
:10211000880000200200002038010020AF330000BA
:102120001600002017000020DA38000010B5012149
:10213000480200F0C1F8054803498162C1050A69F7
:102140000A610021816210BD837A00008000004096
:1021500010B510210C48FFF71DF800220B4900288C
:1021600002D00A704A7010BD48780028FBD1087868
:10217000401CC0B208703228F5D90A70012048709E
:1021800000F08AF810BD0000400801400000002067
:10219000074A803002630129816A05D0054A11404F
:1021A000816205490163704740221143F8E700004E
:1021B000ADDE0000BFFF0000FECA000010B5102118
:1021C0000348FEF7E7FF002801D100F065F810BDD5
:1021D0004008014070B5144C0029A0611FD0134A7B
:1021E000134DD16A126C914209D9AA612846E9615E
:1021F000FEF7B9FD286A0F496061486011E0A278D6
:102200006169831A8B4201D9881803E083188B42D5
:1022100000D2881AC10360612960286201E096201B
:102220006061A08A80B270BD1C00002038010020CF
:102230000C020020BC010020014689088900FF2013
:102240009130814202D31348814207D99320800004
:1022500081421CD34B20C000814218D801200004C9
:1022600000680123DB0218435B0118605920000657
:10227000586018464160C2689520000658601846AC
:1022800000685B1198435B0118601046704700209E
:10229000FCE70000FF010000054804498162416835
:1022A000402211434160002181627047837A00001F
:1022B000800000407047704710B50F4C0D4AA26275
:1022C00023151A0501290BD0410503D511691943BE
:1022D000116118431169814311610020A06210BD92
:1022E000410503D51169994311619843116901436F
:1022F000F2E70000837A000080000040074A064BA6
:1023000093620029D16901D0014300E08143D1618A
:102310000020906270470000837A00008000004037
:102320000449034A8A624862002048628862704712
:10233000837A00008000004008B5002100918142AE
:1023400002D200BF491CF9E708BD704710B5FEF77F
:1023500027FD10BD0C48016A490714D5042101620C
:102360000A480B4A0178491C01704188491C418088
:102370008188491C8180C188491CC18001899142A2
:1023800001D2491C0181704700050140380100203D
:10239000B80B000010B51D48016A490716D5042185
:1023A00001621B480078022801D005280ED1194A85
:1023B000117D104600238030002908D0012914D057
:1023C000022916D0032901D1FEF74EFB10BD817EF4
:1023D000012907D051790129F8D1117553759363FB
:1023E000837610BDFFF784FC10BD02211175C36216
:1023F00010BDC16A084A914205D2C16A491CC16236
:10240000FEF770F910BDFEF7D3FA10BD00060140CB
:1024100017000020880000201A41000070B5054612
:1024200027480C46854203D101212020FFF766FF93
:102430002448854203D101214020FFF75FFF207827
:102440002179C007C9060843217A89060843217B00
:1024500009060843218A09050843A18A090408439B
:10246000E16909030843216AC9020843616A8902D4
:102470000843A16A49020843E16A09020843616B03
:1024800009010843A16BC9000843E16B89000843B7
:10249000216C49000843616C08432860A0696860AA
:1024A000E06CA860A06CE860206B2861206D68611A
:1024B000606DA861A06DE8610720286270BD000012
:1024C000000501400006014000210160416081607B
:1024D000C160016141610122C26181614162816229
:1024E000C162016302624163C1630164416481644A
:1024F000C1640165416582638165704770B5164CA2
:1025000000252078022817D32570608A00F026FA6B
:102510001249088000F05CF800F0DEF8FFF792FB4B
:10252000FEF7C4FCFFF7ACFDFFF7BEFA0C480D49FF
:1025300000788000085880476088142806D365809A
:10254000FFF706FEFFF7B2FCFEF790FBA088C82855
:1025500000D3A58070BD0000380100208800002055
:1025600016000020482B00007047000070B598B09E
:102570006846FFF7A9FF002401250B940194114838
:102580001594042600950995169606900A946946B6
:10259000079504940C48FFF741FF6846FFF794FF46
:1025A0001094FF2011942130159400950294069008
:1025B0000D94694616960F9504940448FFF72EFF74
:1025C00018B070BDC05D000000050140000601406C
:1025D000F8B5394C2088FF2600272D36C82808D2A8
:1025E000E771FEF71FF927816771A77133480770FC
:1025F0000DE02088B0420AD92089032805D220891D
:10260000401C20810120607101E003202081A0791D
:1026100001280BD000210846FFF7DCFD00231A46F5
:10262000962118460097FEF74BFBF8BD206E244D0F
:10263000642804D2206E401C20662E6132E020887F
:102640002049FEF75FFB012000901E480123808A8D
:102650001A4680B29621FEF733FB1B4906460860F6
:10266000A7656F70A26D69788B001B191B6CD01861
:10267000A065491CC8B268700628F3D3A16D134841
:10268000FDF7B2FDE06530460121EE60FFF7A2FDE7
:102690000F492861884201DD296103E0962801DAAB
:1026A00096202861298A0B484A4202808180028153
:1026B000818102828182F8BD8800002017000020FD
:1026C0001C0000209C010020BC010020404B4C005D
:1026D000DC05000000070140F8B5454EB079454FD4
:1026E0000221BB8F00250B431421795E424C012847
:1026F00008D0424A2046408891422DDA32281CD226
:10270000401C36E03D4A3C48863A808891420FDAC8
:10271000FF21F531884201D2401C0CE0B5713848E8
:10272000057038480570A18032206080E1800FE09C
:10273000002829D0401EA08026E0B57130480570E1
:1027400030480570FF20F530A08032216180E080A4
:10275000BB87FEF767F817E02B4A914214DD7279C8
:1027600024490223898F9943012A04D0002808D0E4
:10277000401E608008E0E088002802D0401EE08013
:1027800002E0E5806580B9871420385E1F4A042185
:10279000904214DD20890A2801D2401C19E0B5714D
:1027A00017480570174805700A202081FF20F53072
:1027B0006081B88F0843B887FEF734F8F8BD144A33
:1027C0009042FBDA7079012805D02089002808D0D2
:1027D000401E2081F8BD6089002802D0401E608123
:1027E000F8BD65812581B88F8843B887F8BD0000A2
:1027F000880000203801002002000020450600006B
:102800001600002017000020730A00008751000006
:102810002A490000FEE730B47446641E2578641C23
:10282000AB4200D21D46635D5B00E31830BC184725
:1028300006490A6904239A430A610549C0080860E9
:102840007D2280B2D20050434860704700E000E033
:102850005800002070B58726B6003146FDF7C4FC4D
:10286000C4B20D4604E0304600F020F8641EE4B225
:10287000002CF8D1002D02D0284600F017F870BDCA
:102880000849096848430849486100238B610120D1
:1028900008610869C20701D0C003FAD50B618B61DA
:1028A000704700005800002000E000E00849496837
:1028B00048430849486100238B6101200861086989
:1028C000C20701D0C003FAD50B618B6170470000CD
:1028D0005800002000E000E01A4C08B52046FFF741
:1028E0002BFD2046FFF728FDFEF7DAFCFEF7A6FDDC
:1028F000FEF782FD00F042F8FFF724F91248C168A4
:1029000049084900C16010484030C168082211439D
:10291000C1600E489622E124E400550000900C4B63
:1029200021462846FEF750FD0A4A00920A4BC8226B
:1029300021462846FEF748FDFEF78AF9FFF7DEFD3F
:10294000FCE70000204E0000000801409C01002030
:10295000DC050000D401002050C300000005000D7C
:10296000010500D50020044A1188CB00591A081827
:102970004003000C108070470200002010B505488D
:10298000018AC829FCD30449C160FEF729FAFEF781
:10299000CFFA10BD380100203C2B000070B5324842
:1029A000324D007828710024AC712C612946203901
:1029B0004C702F4848602C756C75AC61E8612862DA
:1029C0002C4A6A62AA620B4640331C732C636C6308
:1029D000AC63EC632C6628646864A864E8642865CA
:1029E0006865AA65EC656866A866E8662867686732
:1029F000A867E8670846A030046044608460C4604B
:102A000004610475C48204838476C47604774477B1
:102A10008477C4770C7704628C614C610A220A6166
:102A200044628462C4623030134984760978C17686
:102A3000C48304844462846201462031C4620C74FD
:102A40004486C4870D480476447644610C4804608B
:102A500044600C480476447644610B48046044604A
:102A6000FEF7CAFC6C8070BD1C00002088000020AE
:102A7000DC05000028230000390000209C01002014
:102A8000BC010020D4010020F401002070B54200F8
:102A900064414B005C41120E39D01B0E38D0FF2A26
:102AA0003CD0FF2B3AD040024902400A490A0600B6
:102AB00045184E43000A090AD2184843ED017F3AEF
:102AC0000104731A4019190C4318990F04D00121FD
:102AD0005B0849075B1A521CD80904D3401CF50354
:102AE00001D19D0607D0FF2A08D2D50506D0E407FC
:102AF0002043401970BD0125A843F4E7002A01DCFA
:102B0000E00770BD2402FF202043C00570BD1B0EEE
:102B1000FF2A03D0FF2B01D0E00770BDFF26450040
:102B20003606B54206D84D00B54203D8D218FF2A62
:102B300000D0E7E7004870BD0000C07F0102000040
:102B40000000000000000000551500008D15000079
:102B500045160000A1150000F11500001116000037
:102B6000FD150000B51500003916000025160000FF
:102B7000C11500008182838485868788898B8C8D2E
:102B80008E8F919293959697999A9C9D9FA0A2A3C0
:102B9000A5A7A8AAACAEB0B2B3B5B7B9BCBEC0C207
:102BA000C5C7C9CCCED1D4D7D9DCDFE2E6E9ECF099
:102BB000F3F7FAFED42B00000000002068000000AC
:102BC000040100003C2C000068000020A00400006C
:102BD00020010000000000000000000000000000D4
:102BE00000000000000000000000010000000000E4
:102BF00000001400000000000000000000000000C1
:102C000000000000000000000000000000050406B5
:102C10000203010102030405000500010203040090
:102C2000010001000101000100010000000000009E
:0C2C30000000000015000000A2000000E1
:04000005000000C136
:00000001FF
